{
  "contractName": "MD5SmartContract",
  "abi": [
    {
      "inputs": [],
      "stateMutability": "nonpayable",
      "type": "constructor"
    },
    {
      "anonymous": false,
      "inputs": [
        {
          "indexed": false,
          "internalType": "bytes32",
          "name": "signature",
          "type": "bytes32"
        }
      ],
      "name": "signEvent",
      "type": "event"
    },
    {
      "inputs": [],
      "name": "signature",
      "outputs": [
        {
          "internalType": "bytes32",
          "name": "",
          "type": "bytes32"
        }
      ],
      "stateMutability": "view",
      "type": "function"
    },
    {
      "inputs": [
        {
          "internalType": "string",
          "name": "document",
          "type": "string"
        }
      ],
      "name": "sign",
      "outputs": [],
      "stateMutability": "nonpayable",
      "type": "function"
    }
  ],
  "bytecode": "0x608060405234801561000f575f80fd5b506103d78061001d5f395ff3fe608060405234801561000f575f80fd5b5060043610610034575f3560e01c806351ff48471461003857806379d6348d14610056575b5f80fd5b610040610072565b60405161004d919061011d565b60405180910390f35b610070600480360381019061006b9190610283565b610077565b005b5f5481565b6002816040516100879190610336565b602060405180830381855afa1580156100a2573d5f803e3d5ffd5b5050506040513d601f19601f820116820180604052508101906100c59190610376565b5f819055507facbf54c45310551f30611466b27938991b0c8e68b476ca487ebb7f3ecadf6dab5f546040516100fa919061011d565b60405180910390a150565b5f819050919050565b61011781610105565b82525050565b5f6020820190506101305f83018461010e565b92915050565b5f604051905090565b5f80fd5b5f80fd5b5f80fd5b5f80fd5b5f601f19601f8301169050919050565b7f4e487b71000000000000000000000000000000000000000000000000000000005f52604160045260245ffd5b6101958261014f565b810181811067ffffffffffffffff821117156101b4576101b361015f565b5b80604052505050565b5f6101c6610136565b90506101d2828261018c565b919050565b5f67ffffffffffffffff8211156101f1576101f061015f565b5b6101fa8261014f565b9050602081019050919050565b828183375f83830152505050565b5f610227610222846101d7565b6101bd565b9050828152602081018484840111156102435761024261014b565b5b61024e848285610207565b509392505050565b5f82601f83011261026a57610269610147565b5b813561027a848260208601610215565b91505092915050565b5f602082840312156102985761029761013f565b5b5f82013567ffffffffffffffff8111156102b5576102b4610143565b5b6102c184828501610256565b91505092915050565b5f81519050919050565b5f81905092915050565b5f5b838110156102fb5780820151818401526020810190506102e0565b5f8484015250505050565b5f610310826102ca565b61031a81856102d4565b935061032a8185602086016102de565b80840191505092915050565b5f6103418284610306565b915081905092915050565b61035581610105565b811461035f575f80fd5b50565b5f815190506103708161034c565b92915050565b5f6020828403121561038b5761038a61013f565b5b5f61039884828501610362565b9150509291505056fea264697066735822122079f847bcb3930130eb20aa3ed6107c30433d70aa97d8ba6c321d6f77bd3d34ac64736f6c63430008150033",
  "immutableReferences": {},
  "source": "// SPDX-License-Identifier: MIT\npragma solidity >=0.4.22 <0.9.0;\n\ncontract MD5SmartContract {\n  bytes32 public signature; \n  event signEvent(bytes32 signature); \n  constructor() public {\n  } \n  function sign(string memory document) public { signature = sha256(bytes(document));\n    emit signEvent(signature);\n  }\n}\n",
  "sourcePath": "/data/data/com.termux/files/home/personal_study/the_blockchain_developer/chapter_4/MySmartContract/contracts/MD5SmartContract.sol",
  "compiler": {
    "name": "solc",
    "version": "0.8.21+commit.d9974bed.Emscripten.clang"
  },
  "schemaVersion": "3.4.16",
  "updatedAt": "2024-08-22T12:03:47.351Z",
  "devdoc": {
    "kind": "dev",
    "methods": {},
    "version": 1
  },
  "userdoc": {
    "kind": "user",
    "methods": {},
    "version": 1
  }
}